{
  "contractName": "WarriorFactory",
  "abi": [
    {
      "constant": true,
      "inputs": [
        {
          "name": "",
          "type": "uint256"
        }
      ],
      "name": "warriors",
      "outputs": [
        {
          "name": "name",
          "type": "string"
        },
        {
          "name": "exp",
          "type": "uint256"
        },
        {
          "name": "challengedWarriorId",
          "type": "uint256"
        },
        {
          "name": "challengedWithWeaponId",
          "type": "uint256"
        },
        {
          "name": "winCount",
          "type": "uint16"
        },
        {
          "name": "lossCount",
          "type": "uint16"
        },
        {
          "name": "freeItems",
          "type": "uint16"
        }
      ],
      "payable": false,
      "stateMutability": "view",
      "type": "function"
    },
    {
      "constant": true,
      "inputs": [
        {
          "name": "",
          "type": "address"
        },
        {
          "name": "",
          "type": "uint256"
        }
      ],
      "name": "ownerToWarriors",
      "outputs": [
        {
          "name": "",
          "type": "uint256"
        }
      ],
      "payable": false,
      "stateMutability": "view",
      "type": "function"
    },
    {
      "constant": false,
      "inputs": [],
      "name": "renounceOwnership",
      "outputs": [],
      "payable": false,
      "stateMutability": "nonpayable",
      "type": "function"
    },
    {
      "constant": true,
      "inputs": [],
      "name": "owner",
      "outputs": [
        {
          "name": "",
          "type": "address"
        }
      ],
      "payable": false,
      "stateMutability": "view",
      "type": "function"
    },
    {
      "constant": true,
      "inputs": [],
      "name": "isOwner",
      "outputs": [
        {
          "name": "",
          "type": "bool"
        }
      ],
      "payable": false,
      "stateMutability": "view",
      "type": "function"
    },
    {
      "constant": true,
      "inputs": [
        {
          "name": "",
          "type": "uint256"
        }
      ],
      "name": "warriorToOwner",
      "outputs": [
        {
          "name": "",
          "type": "address"
        }
      ],
      "payable": false,
      "stateMutability": "view",
      "type": "function"
    },
    {
      "constant": false,
      "inputs": [
        {
          "name": "newOwner",
          "type": "address"
        }
      ],
      "name": "transferOwnership",
      "outputs": [],
      "payable": false,
      "stateMutability": "nonpayable",
      "type": "function"
    },
    {
      "anonymous": false,
      "inputs": [
        {
          "indexed": false,
          "name": "warriorId",
          "type": "uint256"
        },
        {
          "indexed": false,
          "name": "name",
          "type": "string"
        },
        {
          "indexed": false,
          "name": "owner",
          "type": "address"
        }
      ],
      "name": "NewWarrior",
      "type": "event"
    },
    {
      "anonymous": false,
      "inputs": [
        {
          "indexed": true,
          "name": "previousOwner",
          "type": "address"
        },
        {
          "indexed": true,
          "name": "newOwner",
          "type": "address"
        }
      ],
      "name": "OwnershipTransferred",
      "type": "event"
    },
    {
      "constant": false,
      "inputs": [
        {
          "name": "_address",
          "type": "address"
        }
      ],
      "name": "setWeaponContractAddress",
      "outputs": [],
      "payable": false,
      "stateMutability": "nonpayable",
      "type": "function"
    },
    {
      "constant": true,
      "inputs": [],
      "name": "getCreationFee",
      "outputs": [
        {
          "name": "",
          "type": "uint256"
        }
      ],
      "payable": false,
      "stateMutability": "view",
      "type": "function"
    },
    {
      "constant": false,
      "inputs": [
        {
          "name": "_fee",
          "type": "uint256"
        }
      ],
      "name": "setCreationFee",
      "outputs": [],
      "payable": false,
      "stateMutability": "nonpayable",
      "type": "function"
    },
    {
      "constant": false,
      "inputs": [
        {
          "name": "_amount",
          "type": "uint256"
        }
      ],
      "name": "withdraw",
      "outputs": [],
      "payable": false,
      "stateMutability": "nonpayable",
      "type": "function"
    },
    {
      "constant": false,
      "inputs": [
        {
          "name": "_name",
          "type": "string"
        }
      ],
      "name": "createWarrior",
      "outputs": [],
      "payable": true,
      "stateMutability": "payable",
      "type": "function"
    },
    {
      "constant": false,
      "inputs": [
        {
          "name": "_warriorId",
          "type": "uint256"
        },
        {
          "name": "_exp",
          "type": "uint256"
        }
      ],
      "name": "setWarriorExp",
      "outputs": [],
      "payable": false,
      "stateMutability": "nonpayable",
      "type": "function"
    },
    {
      "constant": true,
      "inputs": [
        {
          "name": "_warriorId",
          "type": "uint256"
        }
      ],
      "name": "getWarriorLevel",
      "outputs": [
        {
          "name": "",
          "type": "uint256"
        }
      ],
      "payable": false,
      "stateMutability": "view",
      "type": "function"
    },
    {
      "constant": true,
      "inputs": [
        {
          "name": "_owner",
          "type": "address"
        }
      ],
      "name": "getWarriorsByOwner",
      "outputs": [
        {
          "name": "",
          "type": "uint256[]"
        }
      ],
      "payable": false,
      "stateMutability": "view",
      "type": "function"
    },
    {
      "constant": true,
      "inputs": [
        {
          "name": "_owner",
          "type": "address"
        }
      ],
      "name": "getOtherWarriors",
      "outputs": [
        {
          "name": "",
          "type": "uint256[]"
        }
      ],
      "payable": false,
      "stateMutability": "view",
      "type": "function"
    },
    {
      "constant": true,
      "inputs": [
        {
          "name": "_warriorId",
          "type": "uint256"
        }
      ],
      "name": "getWarrior",
      "outputs": [
        {
          "name": "id",
          "type": "uint256"
        },
        {
          "name": "name",
          "type": "string"
        },
        {
          "name": "exp",
          "type": "uint256"
        },
        {
          "name": "level",
          "type": "uint256"
        },
        {
          "name": "challengedWarriorId",
          "type": "uint256"
        },
        {
          "name": "challengedWithWeaponId",
          "type": "uint256"
        },
        {
          "name": "winCount",
          "type": "uint16"
        },
        {
          "name": "lossCount",
          "type": "uint16"
        },
        {
          "name": "freeItems",
          "type": "uint16"
        }
      ],
      "payable": false,
      "stateMutability": "view",
      "type": "function"
    }
  ],
  "bytecode": "0x608060405266038d7ea4c68000600255336000806101000a81548173ffffffffffffffffffffffffffffffffffffffff021916908373ffffffffffffffffffffffffffffffffffffffff1602179055506000809054906101000a900473ffffffffffffffffffffffffffffffffffffffff1673ffffffffffffffffffffffffffffffffffffffff16600073ffffffffffffffffffffffffffffffffffffffff167f8be0079c531659141344cd1fd0a4f28419497f9722a3daafe3b4186f6b6457e060405160405180910390a3611677806100da6000396000f3fe6080604052600436106100f1576000357c0100000000000000000000000000000000000000000000000000000000900463ffffffff1680631a170712146100f657806329372ad0146101ec5780632e1a7d4d146102f05780634e315efc1461032b5780634eb5a7521461037c5780634faf9864146103cb578063574bd50c1461043a5780636435abac146104e0578063715018a6146105865780638da5cb5b1461059d5780638f32d59b146105f457806396b01c3714610623578063b7d862251461069e578063db07b68e146106d9578063e5d1ea4114610704578063e813c94814610749578063f2fde38b14610804575b600080fd5b34801561010257600080fd5b5061012f6004803603602081101561011957600080fd5b8101908080359060200190929190505050610855565b60405180806020018881526020018781526020018681526020018561ffff1661ffff1681526020018461ffff1661ffff1681526020018361ffff1661ffff168152602001828103825289818151815260200191508051906020019080838360005b838110156101ab578082015181840152602081019050610190565b50505050905090810190601f1680156101d85780820380516001836020036101000a031916815260200191505b509850505050505050505060405180910390f35b3480156101f857600080fd5b506102256004803603602081101561020f57600080fd5b8101908080359060200190929190505050610968565b604051808a8152602001806020018981526020018881526020018781526020018681526020018561ffff1661ffff1681526020018461ffff1661ffff1681526020018361ffff1661ffff16815260200182810382528a818151815260200191508051906020019080838360005b838110156102ad578082015181840152602081019050610292565b50505050905090810190601f1680156102da5780820380516001836020036101000a031916815260200191505b509a505050505050505050505060405180910390f35b3480156102fc57600080fd5b506103296004803603602081101561031357600080fd5b8101908080359060200190929190505050610aac565b005b34801561033757600080fd5b5061037a6004803603602081101561034e57600080fd5b81019080803573ffffffffffffffffffffffffffffffffffffffff169060200190929190505050610bca565b005b34801561038857600080fd5b506103b56004803603602081101561039f57600080fd5b8101908080359060200190929190505050610c21565b6040518082815260200191505060405180910390f35b3480156103d757600080fd5b50610424600480360360408110156103ee57600080fd5b81019080803573ffffffffffffffffffffffffffffffffffffffff16906020019092919080359060200190929190505050610c81565b6040518082815260200191505060405180910390f35b34801561044657600080fd5b506104896004803603602081101561045d57600080fd5b81019080803573ffffffffffffffffffffffffffffffffffffffff169060200190929190505050610cb1565b6040518080602001828103825283818151815260200191508051906020019060200280838360005b838110156104cc5780820151818401526020810190506104b1565b505050509050019250505060405180910390f35b3480156104ec57600080fd5b5061052f6004803603602081101561050357600080fd5b81019080803573ffffffffffffffffffffffffffffffffffffffff169060200190929190505050610d48565b6040518080602001828103825283818151815260200191508051906020019060200280838360005b83811015610572578082015181840152602081019050610557565b505050509050019250505060405180910390f35b34801561059257600080fd5b5061059b610e8d565b005b3480156105a957600080fd5b506105b2610f5f565b604051808273ffffffffffffffffffffffffffffffffffffffff1673ffffffffffffffffffffffffffffffffffffffff16815260200191505060405180910390f35b34801561060057600080fd5b50610609610f88565b604051808215151515815260200191505060405180910390f35b34801561062f57600080fd5b5061065c6004803603602081101561064657600080fd5b8101908080359060200190929190505050610fdf565b604051808273ffffffffffffffffffffffffffffffffffffffff1673ffffffffffffffffffffffffffffffffffffffff16815260200191505060405180910390f35b3480156106aa57600080fd5b506106d7600480360360208110156106c157600080fd5b8101908080359060200190929190505050611012565b005b3480156106e557600080fd5b506106ee61102f565b6040518082815260200191505060405180910390f35b34801561071057600080fd5b506107476004803603604081101561072757600080fd5b810190808035906020019092919080359060200190929190505050611039565b005b6108026004803603602081101561075f57600080fd5b810190808035906020019064010000000081111561077c57600080fd5b82018360208201111561078e57600080fd5b803590602001918460018302840111640100000000831117156107b057600080fd5b91908080601f016020809104026020016040519081016040528093929190818152602001838380828437600081840152601f19601f82011690508083019250505050505050919291929050505061107e565b005b34801561081057600080fd5b506108536004803603602081101561082757600080fd5b81019080803573ffffffffffffffffffffffffffffffffffffffff1690602001909291905050506113d1565b005b60038181548110151561086457fe5b9060005260206000209060050201600091509050806000018054600181600116156101000203166002900480601f0160208091040260200160405190810160405280929190818152602001828054600181600116156101000203166002900480156109105780601f106108e557610100808354040283529160200191610910565b820191906000526020600020905b8154815290600101906020018083116108f357829003601f168201915b5050505050908060010154908060020154908060030154908060040160009054906101000a900461ffff16908060040160029054906101000a900461ffff16908060040160049054906101000a900461ffff16905087565b60006060600080600080600080600080600360018c0381548110151561098a57fe5b906000526020600020906005020190508a8160000182600101546109ad8e610c21565b846002015485600301548660040160009054906101000a900461ffff168760040160029054906101000a900461ffff168860040160049054906101000a900461ffff16878054600181600116156101000203166002900480601f016020809104026020016040519081016040528092919081815260200182805460018160011615610100020316600290048015610a855780601f10610a5a57610100808354040283529160200191610a85565b820191906000526020600020905b815481529060010190602001808311610a6857829003601f168201915b50505050509750995099509950995099509950995099509950509193959799909294969850565b610ab4610f88565b1515610abf57600080fd5b803073ffffffffffffffffffffffffffffffffffffffff1631111515610b73576040517f08c379a000000000000000000000000000000000000000000000000000000000815260040180806020018281038252602f8152602001807f52657175657374656420616d6f756e74206973206c6172676572207468616e2081526020017f63757272656e742062616c616e6365000000000000000000000000000000000081525060400191505060405180910390fd5b6000610b7d610f5f565b90508073ffffffffffffffffffffffffffffffffffffffff166108fc839081150290604051600060405180830381858888f19350505050158015610bc5573d6000803e3d6000fd5b505050565b610bd2610f88565b1515610bdd57600080fd5b80600160006101000a81548173ffffffffffffffffffffffffffffffffffffffff021916908373ffffffffffffffffffffffffffffffffffffffff16021790555050565b600080600360018403815481101515610c3657fe5b90600052602060002090600502019050610c796001610c6b610c66606485600101546113f090919063ffffffff16565b61141a565b61148b90919063ffffffff16565b915050919050565b600560205281600052604060002081815481101515610c9c57fe5b90600052602060002001600091509150505481565b6060600560008373ffffffffffffffffffffffffffffffffffffffff1673ffffffffffffffffffffffffffffffffffffffff168152602001908152602001600020805480602002602001604051908101604052809291908181526020018280548015610d3c57602002820191906000526020600020905b815481526020019060010190808311610d28575b50505050509050919050565b60606000600560008473ffffffffffffffffffffffffffffffffffffffff1673ffffffffffffffffffffffffffffffffffffffff16815260200190815260200160002080549050905060608160038054905003604051908082528060200260200182016040528015610dc95781602001602082028038833980820191505090505b50905060008090506000600190505b60038054905081111515610e81578573ffffffffffffffffffffffffffffffffffffffff166004600083815260200190815260200160002060009054906101000a900473ffffffffffffffffffffffffffffffffffffffff1673ffffffffffffffffffffffffffffffffffffffff16141515610e7457808383815181101515610e5d57fe5b906020019060200201818152505081806001019250505b8080600101915050610dd8565b50819350505050919050565b610e95610f88565b1515610ea057600080fd5b600073ffffffffffffffffffffffffffffffffffffffff166000809054906101000a900473ffffffffffffffffffffffffffffffffffffffff1673ffffffffffffffffffffffffffffffffffffffff167f8be0079c531659141344cd1fd0a4f28419497f9722a3daafe3b4186f6b6457e060405160405180910390a360008060006101000a81548173ffffffffffffffffffffffffffffffffffffffff021916908373ffffffffffffffffffffffffffffffffffffffff160217905550565b60008060009054906101000a900473ffffffffffffffffffffffffffffffffffffffff16905090565b60008060009054906101000a900473ffffffffffffffffffffffffffffffffffffffff1673ffffffffffffffffffffffffffffffffffffffff163373ffffffffffffffffffffffffffffffffffffffff1614905090565b60046020528060005260406000206000915054906101000a900473ffffffffffffffffffffffffffffffffffffffff1681565b61101a610f88565b151561102557600080fd5b8060028190555050565b6000600254905090565b611041610f88565b151561104c57600080fd5b600060036001840381548110151561106057fe5b90600052602060002090600502019050818160010181905550505050565b6002543414151561111d576040517f08c379a00000000000000000000000000000000000000000000000000000000081526004018080602001828103825260398152602001807f596f75206d7573742070726f766964652074686520726571756972656420706181526020017f796d656e7420746f2063726561746520612077617272696f720000000000000081525060400191505060405180910390fd5b6000600360e060405190810160405280848152602001600081526020016000815260200160008152602001600061ffff168152602001600061ffff168152602001600061ffff168152509080600181540180825580915050906001820390600052602060002090600502016000909192909190915060008201518160000190805190602001906111ae9291906115a6565b5060208201518160010155604082015181600201556060820151816003015560808201518160040160006101000a81548161ffff021916908361ffff16021790555060a08201518160040160026101000a81548161ffff021916908361ffff16021790555060c08201518160040160046101000a81548161ffff021916908361ffff16021790555050509050336004600083815260200190815260200160002060006101000a81548173ffffffffffffffffffffffffffffffffffffffff021916908373ffffffffffffffffffffffffffffffffffffffff160217905550600560003373ffffffffffffffffffffffffffffffffffffffff1673ffffffffffffffffffffffffffffffffffffffff1681526020019081526020016000208190806001815401808255809150509060018203906000526020600020016000909192909190915055507f6bc23a54546989e1150d11d2326f6d97579aa3b04240dba5ab71eba01d228b0281833360405180848152602001806020018373ffffffffffffffffffffffffffffffffffffffff1673ffffffffffffffffffffffffffffffffffffffff168152602001828103825284818151815260200191508051906020019080838360005b83811015611391578082015181840152602081019050611376565b50505050905090810190601f1680156113be5780820380516001836020036101000a031916815260200191505b5094505050505060405180910390a15050565b6113d9610f88565b15156113e457600080fd5b6113ed816114ac565b50565b6000808211151561140057600080fd5b6000828481151561140d57fe5b0490508091505092915050565b60008082141561142d5760009050611486565b6003821115156114405760019050611486565b600060026001840181151561145157fe5b0490508291505b8181101561148457809150600281828581151561147157fe5b040181151561147c57fe5b049050611458565b505b919050565b60008082840190508381101515156114a257600080fd5b8091505092915050565b600073ffffffffffffffffffffffffffffffffffffffff168173ffffffffffffffffffffffffffffffffffffffff16141515156114e857600080fd5b8073ffffffffffffffffffffffffffffffffffffffff166000809054906101000a900473ffffffffffffffffffffffffffffffffffffffff1673ffffffffffffffffffffffffffffffffffffffff167f8be0079c531659141344cd1fd0a4f28419497f9722a3daafe3b4186f6b6457e060405160405180910390a3806000806101000a81548173ffffffffffffffffffffffffffffffffffffffff021916908373ffffffffffffffffffffffffffffffffffffffff16021790555050565b828054600181600116156101000203166002900490600052602060002090601f016020900481019282601f106115e757805160ff1916838001178555611615565b82800160010185558215611615579182015b828111156116145782518255916020019190600101906115f9565b5b5090506116229190611626565b5090565b61164891905b8082111561164457600081600090555060010161162c565b5090565b9056fea165627a7a723058203aa87669970504a9d6556d66a1c08910988be155e1857b318e91f1b905253bae0029",
  "source": "pragma solidity ^0.5.0;\n\nimport \"openzeppelin-solidity/contracts/ownership/Ownable.sol\";\nimport \"openzeppelin-solidity/contracts/math/SafeMath.sol\";\nimport \"./Math.sol\";\n\ncontract WeaponInterface {\n  function getWeapon(uint256 _id) external view returns (\n    uint id,\n    string memory name,\n    uint attackPower,\n    address owner);\n  function claimWeaponForWarriorLevelUp(uint _weaponId, address _newOwnerAddress) public;\n}\n\ncontract WarriorFactory is Ownable {\n\n  using SafeMath for uint256;\n  using Math for uint256;\n\n  WeaponInterface weaponContract;\n\n  uint creationFee = 0.001 ether;\n\n  event NewWarrior(uint warriorId, string name, address owner);\n\n  struct Warrior {\n    string name;\n    uint256 exp;\n    uint256 challengedWarriorId;\n    uint256 challengedWithWeaponId; \n    uint16 winCount;\n    uint16 lossCount;\n    uint16 freeItems;\n  }\n\n  Warrior[] public warriors;\n  mapping (uint => address) public warriorToOwner;\n  mapping (address => uint[]) public ownerToWarriors;\n\n  function setWeaponContractAddress(address _address) external onlyOwner {\n    weaponContract = WeaponInterface(_address);\n  }\n\n  // Get the warrior creation fees\n  function getCreationFee() public view returns (uint) {\n    return creationFee;\n  }\n\n  // Set the warrior creation fees\n  function setCreationFee(uint _fee) external onlyOwner {\n    creationFee = _fee;\n  }\n\n  // Withdraw accumulated contract ether to the owner's account\n  function withdraw(uint _amount) external onlyOwner {\n    require(address(this).balance > _amount, \"Requested amount is larger than current balance\");\n    address payable owner = address(uint160(owner()));\n    owner.transfer(_amount);\n  }\n\n  // Create a new warrior by providing a name\n  function createWarrior(string memory _name) public payable {\n    require(msg.value == creationFee, \"You must provide the required payment to create a warrior\");\n\n    uint warriorId = warriors.push(Warrior(_name, 0, 0, 0, 0, 0, 0));\n    warriorToOwner[warriorId] = msg.sender;\n    ownerToWarriors[msg.sender].push(warriorId);\n    emit NewWarrior(warriorId, _name, msg.sender);\n  } \n\n  //THIS SHOULD NOT BE IN PROD, FOR TEST ONLY\n  function setWarriorExp(uint _warriorId, uint _exp) public onlyOwner {\n    Warrior storage warrior = warriors[_warriorId - 1];\n    warrior.exp = _exp;\n  }\n\n  function getWarriorLevel(uint _warriorId) public view returns (uint) {\n    Warrior storage warrior = warriors[_warriorId - 1];\n    return warrior.exp.div(100).sqrt().add(1);\n  }\n\n  function getWarriorsByOwner(address _owner) external view returns(uint[] memory) {\n    return ownerToWarriors[_owner];\n  }\n\n  function getOtherWarriors(address _owner) external view returns(uint[] memory) {\n    uint ownerWarriorsCount = ownerToWarriors[_owner].length;\n    uint[] memory result = new uint[](warriors.length - ownerWarriorsCount);\n    uint counter = 0;\n    //TODO: this suck, as we are looping over every warrior. it doesnt scale\n    for (uint i = 1; i <= warriors.length; i++) {\n      if (warriorToOwner[i] != _owner) {\n        result[counter] = i;\n        counter++;\n      }\n    }\n    return result;\n  }\n\n  function getWarrior(uint _warriorId) public view returns (uint id,\n                                                            string memory name,\n                                                            uint256 exp,\n                                                            uint256 level,\n                                                            uint256 challengedWarriorId, \n                                                            uint256 challengedWithWeaponId,\n                                                            uint16 winCount,\n                                                            uint16 lossCount,\n                                                            uint16 freeItems) {\n    Warrior storage warrior = warriors[_warriorId - 1];\n    return (\n      _warriorId,\n      warrior.name,\n      warrior.exp,\n      getWarriorLevel(_warriorId),\n      warrior.challengedWarriorId,\n      warrior.challengedWithWeaponId,\n      warrior.winCount,\n      warrior.lossCount,\n      warrior.freeItems\n    );\n  }\n\n  modifier ownerOf(uint _warriorId) {\n    require(msg.sender == warriorToOwner[_warriorId]);\n    _;\n  }\n\n}\n",
  "sourcePath": "/home/matdurand/sources/github/matdurand/cryptowars/contracts/WarriorFactory.sol",
  "compiler": {
    "name": "solc",
    "version": "0.5.0+commit.1d4f565a.Emscripten.clang"
  },
  "schemaVersion": "3.0.2",
  "updatedAt": "2019-03-25T22:58:45.167Z",
  "devdoc": {
    "methods": {
      "isOwner()": {
        "return": "true if `msg.sender` is the owner of the contract."
      },
      "owner()": {
        "return": "the address of the owner."
      },
      "renounceOwnership()": {
        "details": "Allows the current owner to relinquish control of the contract."
      },
      "transferOwnership(address)": {
        "details": "Allows the current owner to transfer control of the contract to a newOwner.",
        "params": {
          "newOwner": "The address to transfer ownership to."
        }
      }
    }
  },
  "userdoc": {
    "methods": {
      "renounceOwnership()": {
        "notice": "Renouncing to ownership will leave the contract without an owner. It will not be possible to call the functions with the `onlyOwner` modifier anymore."
      }
    }
  }
}