{
  "contractName": "WarriorCombat",
  "abi": [
    {
      "constant": true,
      "inputs": [
        {
          "name": "",
          "type": "uint256"
        }
      ],
      "name": "warriors",
      "outputs": [
        {
          "name": "name",
          "type": "string"
        },
        {
          "name": "exp",
          "type": "uint256"
        },
        {
          "name": "challengedWarriorId",
          "type": "uint256"
        },
        {
          "name": "challengedWithWeaponId",
          "type": "uint256"
        },
        {
          "name": "winCount",
          "type": "uint16"
        },
        {
          "name": "lossCount",
          "type": "uint16"
        },
        {
          "name": "freeItems",
          "type": "uint16"
        }
      ],
      "payable": false,
      "stateMutability": "view",
      "type": "function",
      "signature": "0x1a170712"
    },
    {
      "constant": true,
      "inputs": [
        {
          "name": "_warriorId",
          "type": "uint256"
        }
      ],
      "name": "getWarrior",
      "outputs": [
        {
          "name": "id",
          "type": "uint256"
        },
        {
          "name": "name",
          "type": "string"
        },
        {
          "name": "exp",
          "type": "uint256"
        },
        {
          "name": "level",
          "type": "uint256"
        },
        {
          "name": "challengedWarriorId",
          "type": "uint256"
        },
        {
          "name": "challengedWithWeaponId",
          "type": "uint256"
        },
        {
          "name": "winCount",
          "type": "uint16"
        },
        {
          "name": "lossCount",
          "type": "uint16"
        },
        {
          "name": "freeItems",
          "type": "uint16"
        }
      ],
      "payable": false,
      "stateMutability": "view",
      "type": "function",
      "signature": "0x29372ad0"
    },
    {
      "constant": false,
      "inputs": [
        {
          "name": "_amount",
          "type": "uint256"
        }
      ],
      "name": "withdraw",
      "outputs": [],
      "payable": false,
      "stateMutability": "nonpayable",
      "type": "function",
      "signature": "0x2e1a7d4d"
    },
    {
      "constant": false,
      "inputs": [
        {
          "name": "_address",
          "type": "address"
        }
      ],
      "name": "setWeaponContractAddress",
      "outputs": [],
      "payable": false,
      "stateMutability": "nonpayable",
      "type": "function",
      "signature": "0x4e315efc"
    },
    {
      "constant": true,
      "inputs": [
        {
          "name": "_warriorId",
          "type": "uint256"
        }
      ],
      "name": "getWarriorLevel",
      "outputs": [
        {
          "name": "",
          "type": "uint256"
        }
      ],
      "payable": false,
      "stateMutability": "view",
      "type": "function",
      "signature": "0x4eb5a752"
    },
    {
      "constant": true,
      "inputs": [
        {
          "name": "",
          "type": "address"
        },
        {
          "name": "",
          "type": "uint256"
        }
      ],
      "name": "ownerToWarriors",
      "outputs": [
        {
          "name": "",
          "type": "uint256"
        }
      ],
      "payable": false,
      "stateMutability": "view",
      "type": "function",
      "signature": "0x4faf9864"
    },
    {
      "constant": true,
      "inputs": [
        {
          "name": "_owner",
          "type": "address"
        }
      ],
      "name": "getWarriorsByOwner",
      "outputs": [
        {
          "name": "",
          "type": "uint256[]"
        }
      ],
      "payable": false,
      "stateMutability": "view",
      "type": "function",
      "signature": "0x574bd50c"
    },
    {
      "constant": true,
      "inputs": [
        {
          "name": "_owner",
          "type": "address"
        }
      ],
      "name": "getOtherWarriors",
      "outputs": [
        {
          "name": "",
          "type": "uint256[]"
        }
      ],
      "payable": false,
      "stateMutability": "view",
      "type": "function",
      "signature": "0x6435abac"
    },
    {
      "constant": false,
      "inputs": [],
      "name": "renounceOwnership",
      "outputs": [],
      "payable": false,
      "stateMutability": "nonpayable",
      "type": "function",
      "signature": "0x715018a6"
    },
    {
      "constant": true,
      "inputs": [],
      "name": "owner",
      "outputs": [
        {
          "name": "",
          "type": "address"
        }
      ],
      "payable": false,
      "stateMutability": "view",
      "type": "function",
      "signature": "0x8da5cb5b"
    },
    {
      "constant": true,
      "inputs": [],
      "name": "isOwner",
      "outputs": [
        {
          "name": "",
          "type": "bool"
        }
      ],
      "payable": false,
      "stateMutability": "view",
      "type": "function",
      "signature": "0x8f32d59b"
    },
    {
      "constant": true,
      "inputs": [
        {
          "name": "",
          "type": "uint256"
        }
      ],
      "name": "warriorToOwner",
      "outputs": [
        {
          "name": "",
          "type": "address"
        }
      ],
      "payable": false,
      "stateMutability": "view",
      "type": "function",
      "signature": "0x96b01c37"
    },
    {
      "constant": false,
      "inputs": [
        {
          "name": "_fee",
          "type": "uint256"
        }
      ],
      "name": "setCreationFee",
      "outputs": [],
      "payable": false,
      "stateMutability": "nonpayable",
      "type": "function",
      "signature": "0xb7d86225"
    },
    {
      "constant": true,
      "inputs": [],
      "name": "getCreationFee",
      "outputs": [
        {
          "name": "",
          "type": "uint256"
        }
      ],
      "payable": false,
      "stateMutability": "view",
      "type": "function",
      "signature": "0xdb07b68e"
    },
    {
      "constant": false,
      "inputs": [
        {
          "name": "_warriorId",
          "type": "uint256"
        },
        {
          "name": "_exp",
          "type": "uint256"
        }
      ],
      "name": "setWarriorExp",
      "outputs": [],
      "payable": false,
      "stateMutability": "nonpayable",
      "type": "function",
      "signature": "0xe5d1ea41"
    },
    {
      "constant": false,
      "inputs": [
        {
          "name": "_name",
          "type": "string"
        }
      ],
      "name": "createWarrior",
      "outputs": [],
      "payable": true,
      "stateMutability": "payable",
      "type": "function",
      "signature": "0xe813c948"
    },
    {
      "constant": false,
      "inputs": [
        {
          "name": "newOwner",
          "type": "address"
        }
      ],
      "name": "transferOwnership",
      "outputs": [],
      "payable": false,
      "stateMutability": "nonpayable",
      "type": "function",
      "signature": "0xf2fde38b"
    },
    {
      "anonymous": false,
      "inputs": [
        {
          "indexed": false,
          "name": "attackerWarriorId",
          "type": "uint256"
        },
        {
          "indexed": false,
          "name": "attackerWeaponId",
          "type": "uint256"
        },
        {
          "indexed": false,
          "name": "defenderWarriorId",
          "type": "uint256"
        }
      ],
      "name": "NewChallenge",
      "type": "event",
      "signature": "0xdde3965ad042df60693f9e2c894f4da932c1c7ccea1c9e3c372a70042efd0c94"
    },
    {
      "anonymous": false,
      "inputs": [
        {
          "indexed": false,
          "name": "attackerWarriorId",
          "type": "uint256"
        },
        {
          "indexed": false,
          "name": "defenderWarriorId",
          "type": "uint256"
        },
        {
          "indexed": false,
          "name": "winnerWarriorId",
          "type": "uint256"
        },
        {
          "indexed": false,
          "name": "looserWarriorId",
          "type": "uint256"
        },
        {
          "indexed": false,
          "name": "attackerPower",
          "type": "uint256"
        },
        {
          "indexed": false,
          "name": "defenderPower",
          "type": "uint256"
        }
      ],
      "name": "ChallengeResult",
      "type": "event",
      "signature": "0xdba500ce9a47562e003991947d645acb2220c7cae4eca3af0dd058c3e4a35cfa"
    },
    {
      "anonymous": false,
      "inputs": [
        {
          "indexed": false,
          "name": "warriorId",
          "type": "uint256"
        },
        {
          "indexed": false,
          "name": "newLevel",
          "type": "uint256"
        }
      ],
      "name": "WarriorLevelUp",
      "type": "event",
      "signature": "0x7b117ea6c895ad6a0a4153d629a3b9f97eae318d5dba9d9c01226d076245dac2"
    },
    {
      "anonymous": false,
      "inputs": [
        {
          "indexed": false,
          "name": "warriorId",
          "type": "uint256"
        },
        {
          "indexed": false,
          "name": "name",
          "type": "string"
        },
        {
          "indexed": false,
          "name": "owner",
          "type": "address"
        }
      ],
      "name": "NewWarrior",
      "type": "event",
      "signature": "0x6bc23a54546989e1150d11d2326f6d97579aa3b04240dba5ab71eba01d228b02"
    },
    {
      "anonymous": false,
      "inputs": [
        {
          "indexed": true,
          "name": "previousOwner",
          "type": "address"
        },
        {
          "indexed": true,
          "name": "newOwner",
          "type": "address"
        }
      ],
      "name": "OwnershipTransferred",
      "type": "event",
      "signature": "0x8be0079c531659141344cd1fd0a4f28419497f9722a3daafe3b4186f6b6457e0"
    },
    {
      "constant": false,
      "inputs": [
        {
          "name": "_attackerWarriorId",
          "type": "uint256"
        },
        {
          "name": "_attackerWeaponId",
          "type": "uint256"
        },
        {
          "name": "_defenderWarriorId",
          "type": "uint256"
        }
      ],
      "name": "duelChallenge",
      "outputs": [],
      "payable": false,
      "stateMutability": "nonpayable",
      "type": "function",
      "signature": "0xa469080d"
    },
    {
      "constant": true,
      "inputs": [
        {
          "name": "_defenderWarriorId",
          "type": "uint256"
        }
      ],
      "name": "getChallengedByWarriorIds",
      "outputs": [
        {
          "name": "",
          "type": "uint256[]"
        }
      ],
      "payable": false,
      "stateMutability": "view",
      "type": "function",
      "signature": "0xb77d1af4"
    },
    {
      "constant": false,
      "inputs": [
        {
          "name": "_defenderWarriorId",
          "type": "uint256"
        },
        {
          "name": "_defenderWeaponId",
          "type": "uint256"
        },
        {
          "name": "_attackerWarriorId",
          "type": "uint256"
        }
      ],
      "name": "acceptDuel",
      "outputs": [],
      "payable": false,
      "stateMutability": "nonpayable",
      "type": "function",
      "signature": "0xcc76addb"
    },
    {
      "constant": false,
      "inputs": [
        {
          "name": "_weaponId",
          "type": "uint256"
        },
        {
          "name": "_warriorId",
          "type": "uint256"
        }
      ],
      "name": "claimWeaponForWarriorLevelUp",
      "outputs": [],
      "payable": false,
      "stateMutability": "nonpayable",
      "type": "function",
      "signature": "0x2e073f3a"
    }
  ],
  "bytecode": "0x608060405266038d7ea4c680006002556000600755336000806101000a81548173ffffffffffffffffffffffffffffffffffffffff021916908373ffffffffffffffffffffffffffffffffffffffff1602179055506000809054906101000a900473ffffffffffffffffffffffffffffffffffffffff1673ffffffffffffffffffffffffffffffffffffffff16600073ffffffffffffffffffffffffffffffffffffffff167f8be0079c531659141344cd1fd0a4f28419497f9722a3daafe3b4186f6b6457e060405160405180910390a3612969806100df6000396000f3fe60806040526004361061011d576000357c0100000000000000000000000000000000000000000000000000000000900463ffffffff1680631a1707121461012257806329372ad0146102185780632e073f3a1461031c5780632e1a7d4d146103615780634e315efc1461039c5780634eb5a752146103ed5780634faf98641461043c578063574bd50c146104ab5780636435abac14610551578063715018a6146105f75780638da5cb5b1461060e5780638f32d59b1461066557806396b01c3714610694578063a469080d1461070f578063b77d1af41461075e578063b7d86225146107ee578063cc76addb14610829578063db07b68e14610878578063e5d1ea41146108a3578063e813c948146108e8578063f2fde38b146109a3575b600080fd5b34801561012e57600080fd5b5061015b6004803603602081101561014557600080fd5b81019080803590602001909291905050506109f4565b60405180806020018881526020018781526020018681526020018561ffff1661ffff1681526020018461ffff1661ffff1681526020018361ffff1661ffff168152602001828103825289818151815260200191508051906020019080838360005b838110156101d75780820151818401526020810190506101bc565b50505050905090810190601f1680156102045780820380516001836020036101000a031916815260200191505b509850505050505050505060405180910390f35b34801561022457600080fd5b506102516004803603602081101561023b57600080fd5b8101908080359060200190929190505050610b07565b604051808a8152602001806020018981526020018881526020018781526020018681526020018561ffff1661ffff1681526020018461ffff1661ffff1681526020018361ffff1661ffff16815260200182810382528a818151815260200191508051906020019080838360005b838110156102d95780820151818401526020810190506102be565b50505050905090810190601f1680156103065780820380516001836020036101000a031916815260200191505b509a505050505050505050505060405180910390f35b34801561032857600080fd5b5061035f6004803603604081101561033f57600080fd5b810190808035906020019092919080359060200190929190505050610c4b565b005b34801561036d57600080fd5b5061039a6004803603602081101561038457600080fd5b8101908080359060200190929190505050610ea8565b005b3480156103a857600080fd5b506103eb600480360360208110156103bf57600080fd5b81019080803573ffffffffffffffffffffffffffffffffffffffff169060200190929190505050610fc6565b005b3480156103f957600080fd5b506104266004803603602081101561041057600080fd5b810190808035906020019092919050505061101d565b6040518082815260200191505060405180910390f35b34801561044857600080fd5b506104956004803603604081101561045f57600080fd5b81019080803573ffffffffffffffffffffffffffffffffffffffff1690602001909291908035906020019092919050505061107d565b6040518082815260200191505060405180910390f35b3480156104b757600080fd5b506104fa600480360360208110156104ce57600080fd5b81019080803573ffffffffffffffffffffffffffffffffffffffff1690602001909291905050506110ad565b6040518080602001828103825283818151815260200191508051906020019060200280838360005b8381101561053d578082015181840152602081019050610522565b505050509050019250505060405180910390f35b34801561055d57600080fd5b506105a06004803603602081101561057457600080fd5b81019080803573ffffffffffffffffffffffffffffffffffffffff169060200190929190505050611144565b6040518080602001828103825283818151815260200191508051906020019060200280838360005b838110156105e35780820151818401526020810190506105c8565b505050509050019250505060405180910390f35b34801561060357600080fd5b5061060c611289565b005b34801561061a57600080fd5b5061062361135b565b604051808273ffffffffffffffffffffffffffffffffffffffff1673ffffffffffffffffffffffffffffffffffffffff16815260200191505060405180910390f35b34801561067157600080fd5b5061067a611384565b604051808215151515815260200191505060405180910390f35b3480156106a057600080fd5b506106cd600480360360208110156106b757600080fd5b81019080803590602001909291905050506113db565b604051808273ffffffffffffffffffffffffffffffffffffffff1673ffffffffffffffffffffffffffffffffffffffff16815260200191505060405180910390f35b34801561071b57600080fd5b5061075c6004803603606081101561073257600080fd5b8101908080359060200190929190803590602001909291908035906020019092919050505061140e565b005b34801561076a57600080fd5b506107976004803603602081101561078157600080fd5b8101908080359060200190929190505050611960565b6040518080602001828103825283818151815260200191508051906020019060200280838360005b838110156107da5780820151818401526020810190506107bf565b505050509050019250505060405180910390f35b3480156107fa57600080fd5b506108276004803603602081101561081157600080fd5b81019080803590602001909291905050506119cb565b005b34801561083557600080fd5b506108766004803603606081101561084c57600080fd5b810190808035906020019092919080359060200190929190803590602001909291905050506119e8565b005b34801561088457600080fd5b5061088d611ee9565b6040518082815260200191505060405180910390f35b3480156108af57600080fd5b506108e6600480360360408110156108c657600080fd5b810190808035906020019092919080359060200190929190505050611ef3565b005b6109a1600480360360208110156108fe57600080fd5b810190808035906020019064010000000081111561091b57600080fd5b82018360208201111561092d57600080fd5b8035906020019184600183028401116401000000008311171561094f57600080fd5b91908080601f016020809104026020016040519081016040528093929190818152602001838380828437600081840152601f19601f820116905080830192505050505050509192919290505050611f38565b005b3480156109af57600080fd5b506109f2600480360360208110156109c657600080fd5b81019080803573ffffffffffffffffffffffffffffffffffffffff16906020019092919050505061228b565b005b600381815481101515610a0357fe5b9060005260206000209060050201600091509050806000018054600181600116156101000203166002900480601f016020809104026020016040519081016040528092919081815260200182805460018160011615610100020316600290048015610aaf5780601f10610a8457610100808354040283529160200191610aaf565b820191906000526020600020905b815481529060010190602001808311610a9257829003601f168201915b5050505050908060010154908060020154908060030154908060040160009054906101000a900461ffff16908060040160029054906101000a900461ffff16908060040160049054906101000a900461ffff16905087565b60006060600080600080600080600080600360018c03815481101515610b2957fe5b906000526020600020906005020190508a816000018260010154610b4c8e61101d565b846002015485600301548660040160009054906101000a900461ffff168760040160029054906101000a900461ffff168860040160049054906101000a900461ffff16878054600181600116156101000203166002900480601f016020809104026020016040519081016040528092919081815260200182805460018160011615610100020316600290048015610c245780601f10610bf957610100808354040283529160200191610c24565b820191906000526020600020905b815481529060010190602001808311610c0757829003601f168201915b50505050509750995099509950995099509950995099509950509193959799909294969850565b806004600082815260200190815260200160002060009054906101000a900473ffffffffffffffffffffffffffffffffffffffff1673ffffffffffffffffffffffffffffffffffffffff163373ffffffffffffffffffffffffffffffffffffffff16141515610cb957600080fd5b6000600360018403815481101515610ccd57fe5b9060005260206000209060050201905060008160040160049054906101000a900461ffff1661ffff16111515610d91576040517f08c379a000000000000000000000000000000000000000000000000000000000815260040180806020018281038252602a8152602001807f596f75206e65656420746f206c6576656c20757020746f20636c61696d20667281526020017f656520776561706f6e730000000000000000000000000000000000000000000081525060400191505060405180910390fd5b600160009054906101000a900473ffffffffffffffffffffffffffffffffffffffff1673ffffffffffffffffffffffffffffffffffffffff16635cc4438c85336040518363ffffffff167c0100000000000000000000000000000000000000000000000000000000028152600401808381526020018273ffffffffffffffffffffffffffffffffffffffff1673ffffffffffffffffffffffffffffffffffffffff16815260200192505050600060405180830381600087803b158015610e5657600080fd5b505af1158015610e6a573d6000803e3d6000fd5b5050505060018160040160049054906101000a900461ffff16038160040160046101000a81548161ffff021916908361ffff16021790555050505050565b610eb0611384565b1515610ebb57600080fd5b803073ffffffffffffffffffffffffffffffffffffffff1631111515610f6f576040517f08c379a000000000000000000000000000000000000000000000000000000000815260040180806020018281038252602f8152602001807f52657175657374656420616d6f756e74206973206c6172676572207468616e2081526020017f63757272656e742062616c616e6365000000000000000000000000000000000081525060400191505060405180910390fd5b6000610f7961135b565b90508073ffffffffffffffffffffffffffffffffffffffff166108fc839081150290604051600060405180830381858888f19350505050158015610fc1573d6000803e3d6000fd5b505050565b610fce611384565b1515610fd957600080fd5b80600160006101000a81548173ffffffffffffffffffffffffffffffffffffffff021916908373ffffffffffffffffffffffffffffffffffffffff16021790555050565b60008060036001840381548110151561103257fe5b906000526020600020906005020190506110756001611067611062606485600101546122aa90919063ffffffff16565b6122d4565b61234590919063ffffffff16565b915050919050565b60056020528160005260406000208181548110151561109857fe5b90600052602060002001600091509150505481565b6060600560008373ffffffffffffffffffffffffffffffffffffffff1673ffffffffffffffffffffffffffffffffffffffff16815260200190815260200160002080548060200260200160405190810160405280929190818152602001828054801561113857602002820191906000526020600020905b815481526020019060010190808311611124575b50505050509050919050565b60606000600560008473ffffffffffffffffffffffffffffffffffffffff1673ffffffffffffffffffffffffffffffffffffffff168152602001908152602001600020805490509050606081600380549050036040519080825280602002602001820160405280156111c55781602001602082028038833980820191505090505b50905060008090506000600190505b6003805490508111151561127d578573ffffffffffffffffffffffffffffffffffffffff166004600083815260200190815260200160002060009054906101000a900473ffffffffffffffffffffffffffffffffffffffff1673ffffffffffffffffffffffffffffffffffffffff161415156112705780838381518110151561125957fe5b906020019060200201818152505081806001019250505b80806001019150506111d4565b50819350505050919050565b611291611384565b151561129c57600080fd5b600073ffffffffffffffffffffffffffffffffffffffff166000809054906101000a900473ffffffffffffffffffffffffffffffffffffffff1673ffffffffffffffffffffffffffffffffffffffff167f8be0079c531659141344cd1fd0a4f28419497f9722a3daafe3b4186f6b6457e060405160405180910390a360008060006101000a81548173ffffffffffffffffffffffffffffffffffffffff021916908373ffffffffffffffffffffffffffffffffffffffff160217905550565b60008060009054906101000a900473ffffffffffffffffffffffffffffffffffffffff16905090565b60008060009054906101000a900473ffffffffffffffffffffffffffffffffffffffff1673ffffffffffffffffffffffffffffffffffffffff163373ffffffffffffffffffffffffffffffffffffffff1614905090565b60046020528060005260406000206000915054906101000a900473ffffffffffffffffffffffffffffffffffffffff1681565b826004600082815260200190815260200160002060009054906101000a900473ffffffffffffffffffffffffffffffffffffffff1673ffffffffffffffffffffffffffffffffffffffff163373ffffffffffffffffffffffffffffffffffffffff1614151561147c57600080fd5b8184141515156114f4576040517f08c379a00000000000000000000000000000000000000000000000000000000081526004018080602001828103825260198152602001807f43616e6e6f74206368616c6c656e676520796f757273656c660000000000000081525060200191505060405180910390fd5b6004600083815260200190815260200160002060009054906101000a900473ffffffffffffffffffffffffffffffffffffffff1673ffffffffffffffffffffffffffffffffffffffff163373ffffffffffffffffffffffffffffffffffffffff16141580156115c35750600073ffffffffffffffffffffffffffffffffffffffff166004600084815260200190815260200160002060009054906101000a900473ffffffffffffffffffffffffffffffffffffffff1673ffffffffffffffffffffffffffffffffffffffff1614155b151561165d576040517f08c379a00000000000000000000000000000000000000000000000000000000081526004018080602001828103825260288152602001807f43616e6e6f74206368616c6c656e6765206f6e65206f6620796f7572206f776e81526020017f2077617272696f7200000000000000000000000000000000000000000000000081525060400191505060405180910390fd5b600083141515611882576000600160009054906101000a900473ffffffffffffffffffffffffffffffffffffffff1673ffffffffffffffffffffffffffffffffffffffff16639e41b73f856040518263ffffffff167c01000000000000000000000000000000000000000000000000000000000281526004018082815260200191505060006040518083038186803b1580156116f857600080fd5b505afa15801561170c573d6000803e3d6000fd5b505050506040513d6000823e3d601f19601f82011682018060405250608081101561173657600080fd5b8101908080519060200190929190805164010000000081111561175857600080fd5b8281019050602081018481111561176e57600080fd5b815185600182028301116401000000008211171561178b57600080fd5b50509291906020018051906020019092919080519060200190929190505050909192509091509050809150508073ffffffffffffffffffffffffffffffffffffffff163373ffffffffffffffffffffffffffffffffffffffff16141515611880576040517f08c379a000000000000000000000000000000000000000000000000000000000815260040180806020018281038252602f8152602001807f43616e6e6f74206368616c6c656e6765207573696e67206120776561706f6e2081526020017f796f7520646f206e6f74206f776e2e000000000000000000000000000000000081525060400191505060405180910390fd5b505b6006600083815260200190815260200160002084908060018154018082558091505090600182039060005260206000200160009091929091909150555060006003600186038154811015156118d357fe5b9060005260206000209060050201905060008160020154141515611900576118ff816002015486612366565b5b8281600201819055508381600301819055507fdde3965ad042df60693f9e2c894f4da932c1c7ccea1c9e3c372a70042efd0c9485858560405180848152602001838152602001828152602001935050505060405180910390a15050505050565b6060600660008381526020019081526020016000208054806020026020016040519081016040528092919081815260200182805480156119bf57602002820191906000526020600020905b8154815260200190600101908083116119ab575b50505050509050919050565b6119d3611384565b15156119de57600080fd5b8060028190555050565b826004600082815260200190815260200160002060009054906101000a900473ffffffffffffffffffffffffffffffffffffffff1673ffffffffffffffffffffffffffffffffffffffff163373ffffffffffffffffffffffffffffffffffffffff16141515611a5657600080fd5b6000600360018403815481101515611a6a57fe5b90600052602060002090600502019050848160020154141515611b1b576040517f08c379a00000000000000000000000000000000000000000000000000000000081526004018080602001828103825260318152602001807f4e6f206475656c206368616c6c656e67652072656365697665642066726f6d2081526020017f7265717565737465642077617272696f7200000000000000000000000000000081525060400191505060405180910390fd5b600080600160009054906101000a900473ffffffffffffffffffffffffffffffffffffffff1673ffffffffffffffffffffffffffffffffffffffff16639e41b73f876040518263ffffffff167c01000000000000000000000000000000000000000000000000000000000281526004018082815260200191505060006040518083038186803b158015611bad57600080fd5b505afa158015611bc1573d6000803e3d6000fd5b505050506040513d6000823e3d601f19601f820116820180604052506080811015611beb57600080fd5b81019080805190602001909291908051640100000000811115611c0d57600080fd5b82810190506020810184811115611c2357600080fd5b8151856001820283011164010000000082111715611c4057600080fd5b50509291906020018051906020019092919080519060200190929190505050909192509091508093508192505050600086141515611d42578173ffffffffffffffffffffffffffffffffffffffff163373ffffffffffffffffffffffffffffffffffffffff16141515611d41576040517f08c379a000000000000000000000000000000000000000000000000000000000815260040180806020018281038252602e8152602001807f43616e6e6f74206368616c6c656e6765207573696e67206120776561706f6e2081526020017f796f7520646f206e6f74206f776e00000000000000000000000000000000000081525060400191505060405180910390fd5b5b6000600160009054906101000a900473ffffffffffffffffffffffffffffffffffffffff1673ffffffffffffffffffffffffffffffffffffffff16639e41b73f85600301546040518263ffffffff167c01000000000000000000000000000000000000000000000000000000000281526004018082815260200191505060006040518083038186803b158015611dd757600080fd5b505afa158015611deb573d6000803e3d6000fd5b505050506040513d6000823e3d601f19601f820116820180604052506080811015611e1557600080fd5b81019080805190602001909291908051640100000000811115611e3757600080fd5b82810190506020810184811115611e4d57600080fd5b8151856001820283011164010000000082111715611e6a57600080fd5b505092919060200180519060200190929190805190602001909291905050509091925090915050809150506000611ea2898489612410565b90506000611eb188848c612410565b9050611ebf8a838a84612479565b6000866002018190555060008660030181905550611edd8a89612366565b50505050505050505050565b6000600254905090565b611efb611384565b1515611f0657600080fd5b6000600360018403815481101515611f1a57fe5b90600052602060002090600502019050818160010181905550505050565b60025434141515611fd7576040517f08c379a00000000000000000000000000000000000000000000000000000000081526004018080602001828103825260398152602001807f596f75206d7573742070726f766964652074686520726571756972656420706181526020017f796d656e7420746f2063726561746520612077617272696f720000000000000081525060400191505060405180910390fd5b6000600360e060405190810160405280848152602001600081526020016000815260200160008152602001600061ffff168152602001600061ffff168152602001600061ffff16815250908060018154018082558091505090600182039060005260206000209060050201600090919290919091506000820151816000019080519060200190612068929190612898565b5060208201518160010155604082015181600201556060820151816003015560808201518160040160006101000a81548161ffff021916908361ffff16021790555060a08201518160040160026101000a81548161ffff021916908361ffff16021790555060c08201518160040160046101000a81548161ffff021916908361ffff16021790555050509050336004600083815260200190815260200160002060006101000a81548173ffffffffffffffffffffffffffffffffffffffff021916908373ffffffffffffffffffffffffffffffffffffffff160217905550600560003373ffffffffffffffffffffffffffffffffffffffff1673ffffffffffffffffffffffffffffffffffffffff1681526020019081526020016000208190806001815401808255809150509060018203906000526020600020016000909192909190915055507f6bc23a54546989e1150d11d2326f6d97579aa3b04240dba5ab71eba01d228b0281833360405180848152602001806020018373ffffffffffffffffffffffffffffffffffffffff1673ffffffffffffffffffffffffffffffffffffffff168152602001828103825284818151815260200191508051906020019080838360005b8381101561224b578082015181840152602081019050612230565b50505050905090810190601f1680156122785780820380516001836020036101000a031916815260200191505b5094505050505060405180910390a15050565b612293611384565b151561229e57600080fd5b6122a781612663565b50565b600080821115156122ba57600080fd5b600082848115156122c757fe5b0490508091505092915050565b6000808214156122e75760009050612340565b6003821115156122fa5760019050612340565b600060026001840181151561230b57fe5b0490508291505b8181101561233e57809150600281828581151561232b57fe5b040181151561233657fe5b049050612312565b505b919050565b600080828401905083811015151561235c57600080fd5b8091505092915050565b60006006600084815260200190815260200160002090506000612389828461275d565b905060008112151561240a5760006123af600184805490506127d890919063ffffffff16565b905082818154811015156123bf57fe5b906000526020600020015483838154811015156123d857fe5b90600052602060002001819055508280548015156123f257fe5b60019003818190600052602060002001600090559055505b50505050565b60008060036001840381548110151561242557fe5b90600052602060002090600502019050600061244160146127fa565b9050600061244e8761101d565b905060006006846001015481151561246257fe5b069050808784840101019450505050509392505050565b6000806000838610151561249d576124908761101d565b92508691508490506124af565b6124a68561101d565b92508491508690505b60006003600184038154811015156124c357fe5b906000526020600020906005020190506019816001015401816001018190555060018160040160009054906101000a900461ffff16018160040160006101000a81548161ffff021916908361ffff16021790555060006125228461101d565b9050848111156125a05760018260040160049054906101000a900461ffff16018260040160046101000a81548161ffff021916908361ffff1602179055507f7b117ea6c895ad6a0a4153d629a3b9f97eae318d5dba9d9c01226d076245dac28482604051808381526020018281526020019250505060405180910390a15b60006003600185038154811015156125b457fe5b9060005260206000209060050201905060018160040160029054906101000a900461ffff16018160040160026101000a81548161ffff021916908361ffff1602179055507fdba500ce9a47562e003991947d645acb2220c7cae4eca3af0dd058c3e4a35cfa888b87878b8e60405180878152602001868152602001858152602001848152602001838152602001828152602001965050505050505060405180910390a150505050505050505050565b600073ffffffffffffffffffffffffffffffffffffffff168173ffffffffffffffffffffffffffffffffffffffff161415151561269f57600080fd5b8073ffffffffffffffffffffffffffffffffffffffff166000809054906101000a900473ffffffffffffffffffffffffffffffffffffffff1673ffffffffffffffffffffffffffffffffffffffff167f8be0079c531659141344cd1fd0a4f28419497f9722a3daafe3b4186f6b6457e060405160405180910390a3806000806101000a81548173ffffffffffffffffffffffffffffffffffffffff021916908373ffffffffffffffffffffffffffffffffffffffff16021790555050565b6000808380549050905060008090505b818110156127ac5783858281548110151561278457fe5b9060005260206000200154141561279f5780925050506127d2565b808060010191505061276d565b507fffffffffffffffffffffffffffffffffffffffffffffffffffffffffffffffff9150505b92915050565b60008282111515156127e957600080fd5b600082840390508091505092915050565b6000600760008154809291906001019190505550814233600754604051602001808481526020018373ffffffffffffffffffffffffffffffffffffffff1673ffffffffffffffffffffffffffffffffffffffff166c010000000000000000000000000281526014018281526020019350505050604051602081830303815290604052805190602001206001900481151561289057fe5b069050919050565b828054600181600116156101000203166002900490600052602060002090601f016020900481019282601f106128d957805160ff1916838001178555612907565b82800160010185558215612907579182015b828111156129065782518255916020019190600101906128eb565b5b5090506129149190612918565b5090565b61293a91905b8082111561293657600081600090555060010161291e565b5090565b9056fea165627a7a72305820750ff31705c8178f7217270f994bd9b1d32341ae9cf679080b10be3730363c340029",
  "source": "pragma solidity ^0.5.0;\n\nimport \"./WarriorFactory.sol\";\n\ncontract WarriorCombat is WarriorFactory {\n\n  mapping(uint256 => uint256[]) private _defenderChallengedBy;\n  uint randNonce = 0;\n\n  event NewChallenge(uint attackerWarriorId, uint attackerWeaponId, uint defenderWarriorId);\n  event ChallengeResult(uint attackerWarriorId, uint defenderWarriorId, uint winnerWarriorId, uint looserWarriorId, uint attackerPower, uint defenderPower);\n  event WarriorLevelUp(uint warriorId, uint newLevel);\n\n  function randMod(uint _modulus) internal returns(uint) {\n    randNonce++;\n    return uint(keccak256(abi.encodePacked(now, msg.sender, randNonce))) % _modulus;\n  }\n\n  function duelChallenge(uint _attackerWarriorId, uint _attackerWeaponId, uint _defenderWarriorId) external ownerOf(_attackerWarriorId) {\n    require(_attackerWarriorId != _defenderWarriorId, \"Cannot challenge yourself\");\n    require(\n      msg.sender != warriorToOwner[_defenderWarriorId] && warriorToOwner[_defenderWarriorId] != address(0x0), \n      \"Cannot challenge one of your own warrior\");\n\n    //weapon 0 is the beginner weapon, available to everyone. no validation required\n    if (_attackerWeaponId != 0) {\n      //Validate weapon owner\n      address weaponOwner;\n      (, , , weaponOwner) = weaponContract.getWeapon(_attackerWeaponId);\n      require(\n        msg.sender == weaponOwner, \n        \"Cannot challenge using a weapon you do not own.\");\n    }\n\n    _defenderChallengedBy[_defenderWarriorId].push(_attackerWarriorId);\n\n    Warrior storage attacker = warriors[_attackerWarriorId - 1];\n    if (attacker.challengedWarriorId != 0) {\n      _removeAttackerFromDefenderChallengers(attacker.challengedWarriorId, _attackerWarriorId);\n    }\n    attacker.challengedWarriorId = _defenderWarriorId;\n    attacker.challengedWithWeaponId = _attackerWeaponId;\n\n    emit NewChallenge(_attackerWarriorId, _attackerWeaponId, _defenderWarriorId);\n  }\n\n  function getChallengedByWarriorIds(uint _defenderWarriorId) public view returns (uint[] memory) {\n    return _defenderChallengedBy[_defenderWarriorId];\n  }\n\n  function acceptDuel(uint _defenderWarriorId, uint _defenderWeaponId, uint _attackerWarriorId) external ownerOf(_defenderWarriorId) {\n    Warrior storage attacker = warriors[_attackerWarriorId - 1];\n    require(attacker.challengedWarriorId == _defenderWarriorId, \"No duel challenge received from requested warrior\");\n\n    address defenderWeaponOwner;\n    uint defenderWeaponPower;\n    (, , defenderWeaponPower, defenderWeaponOwner) = weaponContract.getWeapon(_defenderWeaponId);\n    \n    //weapon 0 is the beginner weapon, available to everyone. no validation required\n    if (_defenderWeaponId != 0) {\n      require(msg.sender == defenderWeaponOwner, \"Cannot challenge using a weapon you do not own\");\n    }\n    uint attackerWeaponPower;\n    (, , attackerWeaponPower, ) = weaponContract.getWeapon(attacker.challengedWithWeaponId);\n\n    uint defenderFinalPower = getAttackPower(_defenderWarriorId, defenderWeaponPower, _attackerWarriorId);\n    uint attackerFinalPower = getAttackPower(_attackerWarriorId, attackerWeaponPower, _defenderWarriorId);\n\n    resolveFight(_defenderWarriorId, defenderFinalPower, _attackerWarriorId, attackerFinalPower);\n\n    //Clear duel request\n    attacker.challengedWarriorId = 0;\n    attacker.challengedWithWeaponId = 0;\n    _removeAttackerFromDefenderChallengers(_defenderWarriorId, _attackerWarriorId);\n  }\n\n  function _removeAttackerFromDefenderChallengers(uint256 _defenderWarriorId, uint256 _attackerIdToRemove) private {\n    uint256[] storage attackers = _defenderChallengedBy[_defenderWarriorId];\n    \n    //Swap the attacker to remove at the end, and pop to remove\n    int256 attackerIndex = _getAttackerIndex(attackers, _attackerIdToRemove);\n    if (attackerIndex >= 0) {\n      uint256 lastIndex = attackers.length.sub(1);\n      attackers[uint(attackerIndex)] = attackers[lastIndex];\n      attackers.pop();\n    }\n  }\n\n  function _getAttackerIndex(uint256[] storage _attackers, uint256 _attackerId) private view returns (int256) {\n    uint256 nbAttackers = _attackers.length;\n    for (uint256 i = 0; i < nbAttackers; i++) {\n      if (_attackers[i] == _attackerId) {\n        return int(i);\n      }\n    }\n    return -1;\n  }\n\n  function resolveFight(uint _defenderWarriorId, uint _defenderFinalPower, uint _attackerWarriorId, uint _attackerFinalPower) internal {\n    uint winnerLevel;\n    uint winnerId;\n    uint looserId;\n    if (_defenderFinalPower >= _attackerFinalPower) {\n      winnerLevel = getWarriorLevel(_defenderWarriorId);\n      winnerId = _defenderWarriorId;\n      looserId = _attackerWarriorId;\n    } else {\n      winnerLevel = getWarriorLevel(_attackerWarriorId);\n      winnerId = _attackerWarriorId;\n      looserId = _defenderWarriorId;\n    }\n\n    Warrior storage winner = warriors[winnerId - 1];\n    winner.exp = winner.exp + 25;\n    winner.winCount = winner.winCount + 1;\n    uint levelAfterExp = getWarriorLevel(winnerId);\n    if (levelAfterExp > winnerLevel) {\n      //Level up, give on free item token\n      winner.freeItems = winner.freeItems + 1; \n      emit WarriorLevelUp(winnerId, levelAfterExp);\n    }\n\n    Warrior storage looser = warriors[looserId - 1];\n    looser.lossCount = looser.lossCount + 1;\n\n    emit ChallengeResult(_attackerWarriorId, _defenderWarriorId, winnerId, looserId, _attackerFinalPower, _defenderFinalPower);\n  }\n\n  function getAttackPower(uint _warriorId, uint _weaponAttackPower, uint _otherWarriorId) internal returns (uint) {\n    Warrior storage otherWarrior = warriors[_otherWarriorId - 1];\n    uint randBonus = randMod(20);\n    uint warriorLevel = getWarriorLevel(_warriorId);\n    //Use the other warrior exp as a random to add randomness to the combat\n    uint expRandom = otherWarrior.exp % 6;\n    return warriorLevel + randBonus + _weaponAttackPower + expRandom;\n  }\n\n  function claimWeaponForWarriorLevelUp(uint _weaponId, uint _warriorId) external ownerOf(_warriorId){\n    Warrior storage warrior = warriors[_warriorId - 1];\n    require(warrior.freeItems > 0, \"You need to level up to claim free weapons\");\n\n    weaponContract.claimWeaponForWarriorLevelUp(_weaponId, msg.sender);\n    \n    warrior.freeItems = warrior.freeItems - 1;\n  }\n\n}",
  "sourcePath": "/home/matdurand/sources/github/matdurand/cryptowars/contracts/WarriorCombat.sol",
  "compiler": {
    "name": "solc",
    "version": "0.5.0+commit.1d4f565a.Emscripten.clang"
  },
  "schemaVersion": "3.0.2",
  "updatedAt": "2019-03-25T23:02:17.572Z",
  "devdoc": {
    "methods": {
      "isOwner()": {
        "return": "true if `msg.sender` is the owner of the contract."
      },
      "owner()": {
        "return": "the address of the owner."
      },
      "renounceOwnership()": {
        "details": "Allows the current owner to relinquish control of the contract."
      },
      "transferOwnership(address)": {
        "details": "Allows the current owner to transfer control of the contract to a newOwner.",
        "params": {
          "newOwner": "The address to transfer ownership to."
        }
      }
    }
  },
  "userdoc": {
    "methods": {
      "renounceOwnership()": {
        "notice": "Renouncing to ownership will leave the contract without an owner. It will not be possible to call the functions with the `onlyOwner` modifier anymore."
      }
    }
  }
}